{
  "_format": "hh-sol-artifact-1",
  "contractName": "MyContract",
  "sourceName": "contracts/MyContract.sol",
  "abi": [
    {
      "inputs": [],
      "stateMutability": "nonpayable",
      "type": "constructor"
    },
    {
      "anonymous": false,
      "inputs": [
        {
          "indexed": true,
          "internalType": "address",
          "name": "buyer",
          "type": "address"
        },
        {
          "indexed": false,
          "internalType": "uint256",
          "name": "value",
          "type": "uint256"
        }
      ],
      "name": "Buy",
      "type": "event"
    },
    {
      "inputs": [],
      "name": "buy",
      "outputs": [],
      "stateMutability": "payable",
      "type": "function"
    },
    {
      "inputs": [],
      "name": "owner",
      "outputs": [
        {
          "internalType": "address",
          "name": "",
          "type": "address"
        }
      ],
      "stateMutability": "view",
      "type": "function"
    }
  ],
  "bytecode": "0x608060405234801561001057600080fd5b50600080546001600160a01b031916331790556101ef806100326000396000f3fe6080604052600436106100295760003560e01c80638da5cb5b1461002e578063a6f2ae3a14610059575b600080fd5b34801561003a57600080fd5b50610043610063565b6040516100509190610145565b60405180910390f35b610061610072565b005b6000546001600160a01b031681565b3433311161009b5760405162461bcd60e51b815260040161009290610183565b60405180910390fd5b600134106100bb5760405162461bcd60e51b815260040161009290610159565b600080546040516001600160a01b03909116913480156108fc02929091818181858888f193505050501580156100f5573d6000803e3d6000fd5b50600080546001600160a01b031916339081179091556040517fe3d4187f6ca4248660cc0ac8b8056515bac4a8132be2eca31d6d0cc170722a7e9061013b9034906101b0565b60405180910390a2565b6001600160a01b0391909116815260200190565b60208082526010908201526f4e6f7420656e6f7567682076616c756560801b604082015260600190565b602080825260139082015272125b9cdd59999a58da595b9d08185b5bdd5b9d606a1b604082015260600190565b9081526020019056fea26469706673582212207063408b1cf617d1bc6ca3faa5b62a7414f16e51aaefaa3a8bc07f05a6bffcfa64736f6c63430008000033",
  "linkReferences": {},
  "deployedLinkReferences": {}
}